:10800000882201204DA90000F1A4010039A9000037
:1080100039A9000039A9000039A9000039A90000D8
:1080200000000000000000000000000011AB000094
:1080300039A9000000000000C9AA000039A9000009
:10804000A1AC0000A1AC0000A1AC0000A1AC0000FC
:10805000A1AC0000A1AC0000A1AC0000A1AC0000EC
:10806000A1AC0000A1AC0000A1AC0000A1AC0000DC
:10807000A1AC0000A1AC0000A1AC0000A1AC0000CC
:10808000A1AC0000A1AC0000A1AC0000A1AC0000BC
:10809000A1AC0000A1AC0000A1AC0000A1AC0000AC
:1080A000A1AC0000A1AC0000A1AC0000A1AC00009C
:1080B000A1AC0000A1AC0000A1AC0000A1AC00008C
:1080C000A1AC0000A1AC0000A1AC0000A1AC00007C
:1080D000A1AC0000A1AC0000A1AC0000A1AC00006C
:1080E000A1AC0000A1AC0000A1AC0000A1AC00005C
:1080F000A1AC0000A1AC0000A1AC0000A1AC00004C
:10810000A1AC0000A1AC0000A1AC0000A1AC00003B
:10811000A1AC0000A1AC0000A1AC0000A1AC00002B
:10812000A1AC0000A1AC0000A1AC0000A1AC00001B
:10813000A1AC0000A1AC0000A1AC0000A1AC00000B
:04814000A1AC0000EE
:108148004FF0FF3C06E000BF4FF0010C02E000BF1B
:108158004FF0010C4DF804CD4FEA410C7FEA6C5CFE
:108168004FEA430C18BF7FEA6C5C1BD001B050EAA1
:10817800410C0CBF52EA430C91EA030F02BF90EA8C
:10818800020F0020704710F1000F91EA030F58BF4B
:10819800994208BF90422CBFD8176FEAE37040F0AD
:1081A800010070474FEA410C7FEA6C5C02D150EA4B
:1081B800013C07D14FEA430C7FEA6C5CD6D152EA06
:1081C800033CD3D05DF8040B704700BF84461046CB
:1081D80062468C461946634600E000BF01B5FFF7CA
:1081E800B7FF002848BF10F1000F01BD4DF808ED9A
:1081F800FFF7F4FF0CBF012000205DF808FB00BF6B
:108208004DF808EDFFF7EAFF34BF012000205DF8C4
:1082180008FB00BF4DF808EDFFF7E0FF94BF012011
:1082280000205DF808FB00BF4DF808EDFFF7CEFF12
:1082380094BF012000205DF808FB00BF4DF808ED51
:10824800FFF7C4FF34BF012000205DF808FB00BF22
:1082580010F8012B11F8013B012A28BF9A42F7D0E8
:10826800D01A7047034611F8012B03F8012B002A96
:10827800F9D170470000000001282DE9F041884637
:1082880008D026F05BFB1622274B1A504FF0FF3020
:10829800BDE8F0818A68254B9A42F2D818F06EFF43
:1082A80005460F4618F06AFF214CD8F80030D8F878
:1082B8000420A3FB043604FB0266D8F808209B18A8
:1082C80046EBE276EA0B42EA4742A2FB0421FF0BA7
:1082D8009B1AC0F30E0204FB0711A2FB04244FEA09
:1082E800D23242EA444266EB0101981A61F1000178
:1082F8000BA3D3E900230EF0A1FFEFF31184202391
:1083080083F31288BFF36F8F0A4BC3E900019A60A9
:1083180084F31188BFF36F8F0020B9E7AFF30080B3
:1083280000CA9A3B000000000C000000FFC99A3BFD
:1083380000CA9A3BB0D80020F0B5044687B00F4673
:1083480016460021102202A81D4624F01FF92046D7
:10835800009423F0F3FF0123019069460548CDE915
:1083680003768DF80830ADF8145016F072FB07B09C
:10837800F0BD00BF10DF00200B460978012911D09D
:10838800032915D0B9B9DB693BB9012203210A4B8E
:108398001A700A4A0A4811F0A8B80121094A08487F
:1083A80011F0A5B80022044B02211A70064AF1E721
:1083B8009B88064AF3E7704755EF002006F702004E
:1083C8008CEC020015F702002CF702003EF70200C1
:1083D8000321024A024811F088B800BF50F7020092
:1083E8008CEC02002DE9F34116F052FD2A4D2B4C7E
:1083F80030212B4A2B4B009028460EF0D7FF204601
:1084080016F0CEFA284B28466363284BE562A3642E
:1084180023F094FF042384F85E30254B254AE36457
:108428004FF48073C4E91523236500232063204695
:1084380084F8243016F0CBFA054648B103460121EA
:108448001D4A1E4811F053F8284602B0BDE8F081D5
:108458001B4FA36A0A263B600123DFF86880BB80B4
:1084680098F80030002BEFD14FF47A72012138468A
:1084780012F0E1F8204616F0A7FB013EF0D198F87B
:108488000030002BE0D101210F4A0C4811F02DF8E3
:108498006FF07305D8E700BF24EF002010DF00203D
:1084A8006DF702005FF7020008EF002081830000EB
:1084B80056F0002056EF002074F702008CEC020002
:1084C80008DF002055EF00208CF702002DE9F04F5F
:1084D800C3B006AF00214FF4C0300EF02FFB6C463E
:1084E8001AF068F888B00DF118084FF4007AC14600
:1084F800674BA8F81CA0C8E90530664B49F8103F3F
:1085080000234A464FF4E651634801F00FFB4FF44D
:10851800C033A5460321614A5F4810F0E8FF0321F4
:108528005F4A5D4810F0E1FF19F0D6FF5D4E88B054
:10853800306003255C4BC8F81050C8E905300023AB
:108548004A464FF4C651544801F0F0FA3368A5463C
:1085580073B90121554A504810F0C7FF4FF4C03392
:108568000121534A4C4810F0C2FF6FF00B044DE054
:108578002946504A484810F0B8FF4FF00009202318
:10858800C7F84890049307F17003CDE902930022DD
:108598000023CDE9002307F14808CDF81480002214
:1085A800454B306819F0BBFD8346A8B119F0F9FFB7
:1085B8008AB006AA414BC2F81CB0C2E90530404B4C
:1085C800A2F820A042F8103F4FF411514B46324810
:1085D80001F0ACFAA546C8E7BB6C2946394A2E48D3
:1085E80010F085FF2946384A2B4810F07EFF08F026
:1085F80041FC044678B10346344A0121264810F06C
:1086080076FF0121324A244810F06FFF2046F437E4
:10861800BD46BDE8F08F29462E4A1F4810F065FF79
:108628002D4809F057FC044610B103462B4AE4E7ED
:1086380000214FF480300EF081FA07F1700016F037
:10864800A1FF97F8704004F0FB04012CF0D100253D
:108658000321234A104810F048FF54222946BD64DC
:1086680007F1700023F092FF43462946C7E91E44EC
:108678001C4807F1700211F0C7FF0346B0B301218F
:10868800194A054810F033FF6FF00D04BEE700BF2C
:10869800A9F70200030000018CEC0200D8F70200E1
:1086A800F1F7020000DF00200FF802002DF80200A9
:1086B80057F8020089F802000000F03FA5F8020010
:1086C80004000001C7F80200E4F8020002F9020001
:1086D80090F9020020F90200FB94010050F9020011
:1086E80070F902007EF90200B2F90200B86C0028A5
:1086F800C5D045F60732A64B5A80C2691C8052681D
:108708005A6011F083FF0321A24AA34810F0EDFE3E
:10871800FFF768FE044600287FF478AF9F4DA04B12
:108728002C78A04A04F00F0011561A88DFF878C296
:10873800114440F6921209B29142A8BF114640F680
:108748002E129142B8BF11461980984BBCF80020F0
:108758001B56DFF85C82134441F638029342A8BFE7
:10876800134641F2A8629342B8BF13469AB2ACF8D6
:108778000020904BDFF840C21B56DCF80000FA815D
:1087880003448E4800228342A8BF0346A0F5C87060
:108798008342B8BF0346CCF800303B610023013464
:1087A800C7E91C2307F170002C70B98109F078FF24
:1087B800D7E91C54D8F80090B7F90C0009F1010367
:1087C800C8F80030C7E90554C7F81C9023F066FFC5
:1087D800C7E90801F88923F072FEC7E90A01386978
:1087E80023F06DFEC7E90C012846214623F0F1FF6E
:1087F800C7E90E01484623F062FE0023BB6007F17B
:108808000803C7E91001C7E91254C7E91454C7E9B6
:108818001654C7E91854C7E91A54049380230393DC
:1088280007F170030293664B05220193654B07F12C
:1088380020010093306807F1480318F07CFE0546D4
:10884800002861D1B86800285ED03B69C7F800D01D
:108858008EB0D7F81CB0B7F90CA0B7F80E907B60B3
:1088680006AC594B63611423C4E9063023F027FE94
:108878000022564B23F006FF02460B4600205449BF
:1088880023F07CFD0022534B24F026F8002200231D
:1088980023F0FEFE7B68224663630A23C4E90801CD
:1088A800C4E90ABAC4F8309042F8103F45F2C00152
:1088B8002B46394801F03AF9D8F80030D7F800D0FB
:1088C8005B00BA6844489BB207F17001FFF734FDBA
:1088D800044678B30346414A01212F4810F007FEA9
:1088E800234601213E4A2C4810F001FE3D4816F06F
:1088F800F4F800223C4B1A7000214FF420300EF09F
:108908001DF9FFF76FFD09E7284619F04AFE6C4686
:1089180088B006AA354BC2E905304FF4007393833B
:10892800334B42F8103F00234FF4E4511A4801F04A
:10893800FDF8A5461E4B14221B682E485B00013328
:108948009BB207F10C01FFF7F7FC044610B1034690
:10895800294AC1E70524DFF8A480224D002201211D
:10896800264811F068FE002806DDB8F80630DB0757
:1089780002D51C4816F028F9284616F000F94FF4DD
:10898800004000210EF0DAF8013CE7D1C6E600BF4E
:1089980008EF0020C9F902008CEC020054EF002017
:1089A80042D10020F2FA020040D10020E2FA02008F
:1089B80004DF0020D2FA020064CA0020508B0100B4
:1089C800AEFA020050CA0020D9F902000000344073
:1089D8000000F03F0000594007FA020018FA0200B0
:1089E8008AFA020010DF002055EF002036FA020054
:1089F8000300000163FA020073FA020008DF002096
:108A08002DE9F04F91B0009302F004030293C2F3F2
:108A1800C2030133840705460E46DDF868900392C9
:108A2800059340F0BB81041D30B1072909D86FF0C8
:108A38001B0011B0BDE8F08F01F00706341DC6F128
:108A48000806009B4FF000084FF0040A591E4FF02B
:108A5800FF3347460193C3465346CDF810800DB106
:108A6800009A22600598002800F3E8809848009A48
:108A7800824203D397488242C0F0E080039AA4EB75
:108A8800050E92074FEA9E0000F103810F2F00F2B6
:108A9800B180002D00F0058107F140020DEB020CBA
:108AA800019A0CF8200C0CF8102C04980130049052
:108AB800E7E07A285DD84B280ED8472859D82928C6
:108AC8002DD8252852D054D820287AD02338D0F150
:108AD800000B4BEB000B74E04C382E2849D8DFE82C
:108AE80000F07048484848484848484848484B4873
:108AF8004848484848484859484B4B595959704B79
:108B08006D487048184B184848827F4B48484B4876
:108B18007F0000204FF0000B4FF0040A38E00122DC
:108B28002A38C0B202FA00F010EA0E0F49D110F04C
:108B3800625C2FD110EA020B43D06046013C5444DA
:108B4800B4FBFAF40AFB04F4002D61D0A3EB050C86
:108B5800A444B4453FF66BAF002868D1042B47D135
:108B680059F8043B2360042304342AE0019A013AAB
:108B780001924FF0000B24E011F8010C6C2834D15D
:108B8800002011F8023C83466C2BC5D14FF0080A2F
:108B98005346D3E709F1070929F00709073424F0F8
:108BA8000704F9E802AB35B106982044B0423FF615
:108BB8003EAFC4E900AB4FF0000B08344FF0080A91
:108BC800534611F8010F002878D0BBF1000F7FF44D
:108BD80070AF2528F5D14FF0010B019B01330193AC
:108BE8004FF0040AECE7584694E700208346A5E7CF
:108BF800082B02D06FF015001BE709F1070929F0CF
:108C08000709F9E80223C4E9002308230834D8E750
:108C180068B9042B02D109F10409A4E7082BE9D1AA
:108C280009F1070929F0070909F10809EDE7059A8B
:108C3800013A059259F8042B009210E7039A90071D
:108C480020D54FF0010CA4EB050E4FEA9E00BEF5AF
:108C5800007FCFD20F2FCDD8F5B107F140020DEB31
:108C6800020E019AC0B20EF8200C0EF8102CBCF1BE
:108C7800000F3FF41AAF60F07F000EF8200C08F1E7
:108C880001080137C5F108024FF6DA7E043406926E
:108C980097E74FF0000CDAE7BCF1000F01D001367E
:108CA800EFE7029802360028EBD10098CDE90631AB
:108CB80023F044FBDDE906310644E2E7631BB3F524
:108CC800806F97D245B9A6F10804E018B1E600BF55
:108CD80058E9020078110300029A9B0828602B705B
:108CE8009DF81030C2B1EB7085F80280B8F1000F22
:108CF80005D0002208A8C5F1010C97420ED14FF00B
:108D0800000AC5F101030DF1200901930DF1300BA3
:108D1800574512D1601B8CE66B70E5E710F8013BF4
:108D2800190608D504EB0C0EB64503F07F033FF691
:108D38007EAE04F8013B0132DFE7B8F1000F03D043
:108D480099F90020002A17DB029BD3B11AF80B20EF
:108D580004F8012B0022019B98182044B0423FF6EA
:108D680066AE99F80000009904F8010B20460392BA
:108D780023F0F1FC039A14440AF1010A09F10109EC
:108D8800C6E799F8002055F822300093029B009816
:108D980045F8223023F0D2FA421CDCE76FF00D00D0
:108DA80047E600BF2DE9F04F97B000AFD7F880B085
:108DB8003B62CBF3C0030446894690F802A0FA62EE
:108DC800BB6141B9457800780AEB800020444D45E5
:108DD80017D8A0EB0409E378FB61BAF1000F02D0C1
:108DE8001BF0010F16D1FB6953BBFB6A1BB1494647
:108DF80020463A6A98474D4628465C37BD46BDE846
:108E0800F08F461C304623F099FA0130304409F1BE
:108E18000109DCE7626823787A62FA6A9900796165
:108E280004EB8301002A40F001810E464FF0000850
:108E38004D4601EB0A094E454CD101EB0A0610E0FC
:108E48001BF0020FD1D023789A007A61626804EB94
:108E580083017A62FA6A002A77D14D46904601EB7F
:108E68000A061BF0050F0CBF02230123FB62FB69F6
:108E780006EB430A0BF00203BB625645BCD016F85A
:108E8800021B16F8013C54F82390AF4B994502D3C6
:108E9800AE4B994536D3BB69002B40D0786A10F0A9
:108EA80010FE00283BD0E9468AB06A46A84B5361B9
:108EB8007B6AC2E906314FF400731384A54B42F86C
:108EC800103F00234FF41251A34800F02FFE023D3B
:108ED800CD46D2E716F8013BF96254F8230023F097
:108EE8002DFAD7F88430F96A01304BB1D7F88830B9
:108EF80098453EBFD7F8843023F8180008F10108D8
:108F0800054498E7BB6923B1786A10F0DAFD0028B8
:108F1800C9D11BF0010F05D1FB6AED1AADE7BB6A99
:108F2800002BAAD0484623F009FAD7F8843053B169
:108F3800D7F8883098453FBFD7F88420431C22F8DB
:108F4800183008F10108054497E7BAF1000F73D00B
:108F58001BF0040673D0D046002607F1480052469D
:108F68003B61B96223F0F7FBB96A3B6901EB0A027E
:108F7800BA62FA69F9695200FA60BA6A02EB410208
:108F88003A610BF00202BA603A69B96A8A4258D16A
:108F980062781BF0020F18BF00217A6208BF4FEAFF
:108FA8005801B2181BF0010FD2B240F09F801BF09D
:108FB800040F14BF40460020BB616270A070E170CE
:108FC80020463A6A7969FB6A9847051EFFF614AF8E
:108FD800BB69414623707B6A3A6A6370FB6984F80F
:108FE80002A0E37007F14800FB6A9847B0F1000857
:108FF800C0F2B4807B69A9EB0A01C91AFB683A6A16
:10900800C91AD7E90A0398470028C0F2A9804FF087
:10901800000BA84408EB000507F1380AB34567D3ED
:1090280000213A6A0846FB6A9847E5E656464FF03B
:10903800000807F1380092E75646D04696E7B04652
:1090480094E7BA6A12F8021B12F8015CBA6254F883
:1090580025003D4A904202D33C4A90421ED3BA6949
:1090680032B1786A7B6010F02CFD7B6800288BD1C8
:10907800BA6802BB08F1280207F1300C08F10100B8
:10908800944407F1580208F1020852FA80F00CF8EB
:10909800101C5FFA88F800F8105C75E7BA693AB1F5
:1090A800786A7B6010F00DFD7B6800287FF46CAF58
:1090B8001BF0010F09D006F1280207F13000711CDE
:1090C800161806F8205CCEB25EE71BF0040F3FF4DA
:1090D8005BAF08F1280207F1300008F1010102EB4B
:1090E800000808F8105C5FFA81F84DE7002063E794
:1090F8001BF80A3054F8239087F83730D7F88430B3
:10910800FBB133F81B8001213A6AFB6A07F137008B
:109118009847002824DB0544B8F1000F06D14846DB
:1091280023F00CF900F101081FFA88F84146484677
:109138003A6AFB6A9847002812DB05440BF1010BD9
:109148006CE7D7F88480DEE758E90200781103005D
:1091580002FB0200040000019CEC020045464BE6BD
:10916800054649E6014B1860704700BF68CA0020F1
:1091780080B505460E46174698460DF0FDFC034699
:1091880025F0DCFB0446DFF81890424649F8003029
:1091980039463046A84754F8090001F03BFC00BFA7
:1091A80008000000032800B508D925F0C7FB0922EC
:1091B800074B1A504FF0FF305DF804FB3022054B87
:1091C80002FB0033D3E8AF3F002BEED00020F3E7DB
:1091D8000C00000080DF00203023434330B50D49E8
:1091E80008330B44D3E8AF2F92B1541ED3E8EF5F96
:1091F800954204D1C3E8EC4FBCF1000FF6D1F1D190
:10920800012A05D13023584300230A180B50536014
:1092180030BD00BF78DF002038B504461546FFF79B
:10922800C1FF00280DDB30236343074AD01840688C
:10923800086015B10C3313442B6030235C4310597C
:1092480038BD0020FCE700BF78DF002070B500259E
:109258004FF0FF334FF0FF32174810F075FC174BF3
:10926800D3E8AF2F82B10135042D03F13003F7D1D4
:1092780025F064FB17224FF0FF35114B1A500E48AA
:1092880010F064FC284670BD30246C43D3E8EF0F1F
:109298000130C3E8E10F0029F8D10A4E33193251E1
:1092A8005A6004F10C00304417F06CFC04F1200003
:1092B800304417F0EBFDE2E734D2002080DF0020D5
:1092C8000C00000078DF002030B40446302510463A
:1092D8006C43084A151911516860EB6240B1C368C4
:1092E80033B10C34131940F2051230BC10F01DBC18
:1092F80030BC704778DF00202DE9F84340F26C73EA
:1093080044690569E1170135E41841F10001022DAE
:109318008CBF00230123E41AC76861F1000100290A
:10932800064607F1FF374EDA6FF4C7704FF4C8727C
:109338000023201861F100010DF080FF244B4FF04D
:109348003C0E03FB0044D6E900834FEAE37C9946D0
:109358006346022D02468CBF6FF002000920B668F2
:109368000544C6FB0E93A9FB0EC60EFB036640F22E
:109378006D1E9920A3080EFB04333B446427454324
:109388000520B4FBF7F40235B5FBF0F51B1B114CB7
:109398001CEB080CA2FB042004FB01012B4446EB48
:1093A800E87698180C4A41F1000380180B4A63F1DB
:1093B8000003A0FB020102FB031110EB0C0041EBC0
:1093C8000601BDE8F8834FF4C87200232046B3E7CE
:1093D80070FEFFFFB13A02009405F5FF80510100CD
:1093E8002DE9F047058B04462807904611D4022939
:1093F80005F0070540F0CC80204610F05BFE78B100
:109408000138218B042811D8DFE800F0C2106D85DF
:10941800950001290CBF45F0100545F0200525836E
:1094280088F31188BFF36F8FBDE8F08701F0070A52
:10943800AA4500F0A5800027B9463E46A368002B40
:1094480000F0BC8041F00801218388F31188BFF344
:109458006F8FA168002900F0BA800D68002900F01C
:10946800B680334652462046D1F80480C047002DC6
:1094780076D02B6829461D46F0E701F007035A1FEE
:10948800012A1BD8002221F00701062B276889B280
:10949800C4E9002209D13B4603E0628B01326283B2
:1094A8001B68002BF9D141F002012046218310F0FE
:1094B80001FE00287AD041F0200176E0042B0AD181
:1094C80021F0070189B22046218310F0F3FD10B185
:1094D80041F020012183218B01F0070AAA454FD0D2
:1094E8000027B946AAE7236921F0070141F00601E0
:1094F800062DD3F8009021832DD1B9F1000F3FD06C
:1095080041F00801218388F31188BFF36F8F20464B
:109518003949C84729E021F00701236941F00401CE
:1095280089B2042DD3F804902183E6D000274FF0A8
:10953800040A3E4682E721F00701236941F005014C
:1095480089B2052DD3F808902183D6D000274FF093
:10955800050A3E4672E700274FF0060A3E466DE7C9
:109568002B4687E7B9F1000FD1D1EFF311882023FB
:1095780083F31288BFF36F8F238B23F008032383B1
:10958800258BEA062ED525F01003238305F0070561
:109598006669218B002EBFF670AF00232768C4E9E7
:1095A800003321F0070141F001012183218B4FF0A5
:1095B800000901F0070AAA457FF440AF002F9CD0AC
:1095C80041F00801218388F31188BFF36F8F002FC2
:1095D800C8D03D68394633465246204610F096FDBD
:1095E8002F46F4E7AB067FF51BAF25F02003238356
:1095F80005F0070500E700BF41A101002DE9F0478C
:10960800044607464FF00109DFF8508014B9384680
:10961800BDE8F08794FAA4F5B5FA85F509FA05F3DB
:109628002E0108EB05156FEA030A24EA03042B7BD5
:10963800002BEBD058F806301B694BB946447368C9
:1096480004222846196807EA0A0700F05BFADDE7F2
:10965800284698470028D9D1F0E700BF14ED02004A
:1096680030B5002289B00F490F4817F0CEFD00220F
:1096780000230024CDE906230E230C4DCDE9033445
:109688004FF440722846CDE90144094B094900943A
:109698000CF0A2FF0849284617F002FC204609B042
:1096A80030BD00BFC596000078D80020E8D3002060
:1096B800B199000068F60020B6FB020001480CF0E2
:1096C80011BD00BFECD200202DE9F04780461F48AD
:1096D8000F4610F0EAFD0646002830D0002528463F
:1096E800BDE8F087237B6BB12368DB680BB12046AC
:1096F800984723681B69D3B9636804222046196810
:1097080000F000FA013610344C45EBD3B8F1000FE5
:10971800E5D0002DE2D02846FFF770FF0546002F60
:10972800F7D000214FF4A4700DF008FAF1E72046B5
:1097380098470028E0D00AFA06F31D43E2E70546F9
:109748004FF0010A024CDFF80C90DDE748E00020FA
:1097580014ED020024ED0200014B53F8200070477D
:109768001CF0020008B5034608462BB1044A1360F2
:1097780000F072FC002008BD6FF01500FBE700BF89
:109788006CCA002010B5044C237813B903480CF0B8
:10979800A9FC0123237010BD56F10020ECD2002053
:1097A80010B50446094810F080FD3CB1084BD3E8D9
:1097B800EF1F0139C3E8E21F002AF8D1054817F066
:1097C80030FDBDE8104004480CF08CBC40E000209F
:1097D80044E0002078D80020ECD200200020014688
:1097E800034BD3E8EF0FC3E8E21F002AF9D1704713
:1097F80040E0002070B5FFF7F1FF0546074C084E22
:10980800B44200D370BD63685B792BB123685B6891
:1098180013B12946204698471034F1E714ED0200A9
:1098280024ED020010B5044C0449204610F08EFACD
:10983800034B1C6010BD00BF84D1002008F002005B
:1098480038E0002008B50023074A4FF400411370A0
:10985800064A07481360074A1360FFF783FFBDE80D
:109868000840FFF7DFBF00BF57F1002040E00020AD
:10987800AFA2010044E00020014600220023014875
:1098880010F085BA84D10020014810F01BBB00BF3E
:1098980084D10020024B0146186810F067BB00BF56
:1098A80038E00020014810F09CBB00BF84D10020A4
:1098B80070B5264B1878002847D0FFF7E5FF054616
:1098C80070B1234BD3E8EF1F0139C3E8E21F002A28
:1098D800F8D1204C204EB4422DD32846FFF7DAFFAA
:1098E8001E4B1F4C1B68002B19DD17F047FC4FF46B
:1098F8007A72A0FB020302FB0131C30B43EA414326
:10990800D4E900209B1A40F2E9324FEAD13161EBE9
:109918000001934271F1000101D3FFF76BFFD4E915
:10992800003213F57A7342F10002C4E90032BDE84F
:109938007040FFF7B7BF63685B7923B12368294696
:1099480020461B6898471034C5E770BD56F10020C3
:1099580044E0002014ED020024ED020040E0002065
:1099680070D8002070B50D4D297861B90120FFF736
:10997800ABFE0B4C0B4EB44206D3FFF799FF002801
:10998800FBD101232B7070BD63685B791BB1236821
:1099980020469B6898471034EDE700BF57F1002038
:1099A80014ED020024ED020000212DE9F0470846DD
:1099B800FFF78AFE044658B340F267684FF0000983
:1099C80024F0BCFF1B4B1C4A1B58136033B11B4BC4
:1099D8001B68092B02DD1A480CF084FB0025194F7F
:1099E800DFF85CA044B12046FFF708FE044618B92A
:1099F8004FF0FF384FF0FF39FFF75AFF064628B9F6
:109A0800B5B942464B4650460CF090FB3546E9E75F
:109A18004FF0FF384FF0FF39D2E72B689B691BB135
:109A280000222846114698471035BD42F5D3E8E78D
:109A3800054DFAE7080000003CE0002044E0002063
:109A4800ECD2002024ED020014ED020013B51848F2
:109A580010F02BFC174B1B7873B1EFF31184202304
:109A680083F31288BFF36F8FFFF722FF84F3118807
:109A7800BFF36F8F02B010BD0F4B1B68002BF9D0DE
:109A880050B9002200230D48CDE900234FF40042CD
:109A980000230DF0F3FAEDE70928EBD1074817F09A
:109AA800C0FB074802B0BDE810400CF01BBB00BF6C
:109AB80044E0002057F100203CE0002078D8002046
:109AC800ECD2002010B5064B04461B689847214687
:109AD800A060044810F0D7F9BDE81040FFF7B6BF02
:109AE8006CCA002084D10020044A054B9B1AB1EBB4
:109AF800D30F34BF52F83100002070478CEC0200BD
:109B080014ED0200084B10B4C31A44681B1101334A
:109B1800237143689A7101224368196043685A7136
:109B280010BCFFF72FBE00BF14ED02002DE9F04F67
:109B38008FB0C1F34A2804AF0D469146B8607B60E8
:109B48000C0DB8F1000F63D000264FF0040B4FF056
:109B58000A0A07F11403C7F80C80C7E907667E6292
:109B68000193CDF808B0CDF800A007F11C033246E8
:109B78004846F968FFF716F9B0F5006F03461CD39D
:109B88006C468AB0D9F8041004AB26481A46C3E9D3
:109B9800050140F2FF71D9614FF400711984224B1D
:109BA80042F8103F4FF4125133462048FFF7BEFFEA
:109BB800A5462C37BD46BDE8F08FC0F30A0804F16E
:109BC8001700184420F0070080083B60FFF754FE98
:109BD80068F35325044690B13B6800F11001C7E9CA
:109BE800083607F11403F961CDE900A3CDF808B0F0
:109BF80048460F4AF96807F11C03FFF7D3F868F3E2
:109C080053252A4620467B68B96810F080FBD0E7C8
:109C180004F1170020F007008008FFF72DFE044626
:109C2800EDE700BFCBFB020004000001B4EC02002A
:109C3800EBA201002DE9F04F87B00446DDE9105A88
:109C4800DDE91279934698460391BFB13B465246E7
:109C580010210020CDF80090CDF81490FEF7D0FE2A
:109C6800B0F5006F06460AD340F2FF730221174A87
:109C7800174807B0BDE8F04F10F0A2BB3E4605F10B
:109C88001700304420F007008008FFF7F5FD04F0C6
:109C980007040BF0070BE40044EA8B1444EA46245B
:109CA80044EA0554054640B13FB13B465246314669
:109CB800CDF800901030FEF7A3FE43462246284612
:109CC800039907B0BDE8F04F10F021BB0AFC020071
:109CD800B4EC0200406820B1034BC01A40F3CF0037
:109CE80070474FF0FF3070478CEC02000EB403B59C
:109CF80003AB53F8042B01460448019301F000FA22
:109D080002B05DF804EB03B0704700BF2BA401005C
:109D1800CA0605D48B064CBF02490349FFF7E6BFC4
:109D2800704700BFF6080300F50803002DE9F04F5F
:109D380089B09B46149B9DF84CA00693159B04463E
:109D48000593169B0D469046179E0493BAF1000F93
:109D580000F09D8006F48073079310F0C0FA06F0B7
:109D68000209024600283ED020469149FFF7BEFF6F
:109D78000746B9F1000F08D016F0440F35D12A462E
:109D880020468C49FFF7B2FF074406F0010353B1A0
:109D9800894B204653F82A20884B8949002A08BF56
:109DA8001A46FFF7A3FF06F48073002B49D006F08C
:109DB8000803002B63D1B8F1000F66D04246204655
:109DC8008049FFF793FF0546069B3D44002B6DD164
:109DD800049B002B73D1F30700F1E4803146204641
:109DE800FFF796FFD8E00746C3E7774B18680028C7
:109DF800CAD0764B4FF47A791B684FF46161B5FB92
:109E0800F3F5B5FBF0F300FB135509FB05F5B3FBC0
:109E1800F1F2B5FBF0FE4FF03C0C01FB123100FBF8
:109E28001E55B1FBFCF309FB05F5B5FBF0F50CFB82
:109E3800131120460091CDE901E56549FFF756FF6A
:109E4800A2E706F00803EBB1624B204653F82A203C
:109E58006149FFF74BFF0546B8F1000F05D04246B0
:109E680020465849FFF742FF0544BBF1000FABD02D
:109E78005A4620465949FFF739FF0544A4E74FF0F1
:109E8800000BE1E706F00805E6E745469CE7BBF16D
:109E9800010F069B06D1002B64D1049B002B7BD0BD
:109EA80000250CE0002BF8D04D485CE04D48069B9F
:109EB80022464D490FF0D4FD049B002B68D0DFF8F3
:109EC8002C81DFF82C91049F3146102F204628BFA3
:109ED80010274FF0000BFFF71BFF5D4545DC059B86
:109EE800494620461A78FFF701FF4FF0010B1BF097
:109EF800070F03D141462046FFF7F8FE5F453BD9DF
:109F0800059B4946204613F80B20FFF7EFFE0BF19F
:109F1800010BBBF1100FEAD14FF0000B2046354979
:109F2800FFF7E4FE5A46059B20469A5CA2F1200101
:109F38005F2928BF2E223049FFF7D8FE0BF1010B0D
:109F4800BBF1100F1DD01BF0070F03D1414620466F
:109F5800FFF7CCFE5F455A46E5D841462046FFF755
:109F6800C5FEEBE71F485546A1E741462046FFF7E7
:109F7800BDFE0BF1010BB0E720462049FFF7B6FE06
:109F8800C5E7059B3B440593049BDB1B04939AD1CF
:109F9800BAF1000F7FF41FAF204609B0BDE8F04FBB
:109FA80010F032BA2046054A0549FFF79FFE15E72B
:109FB80047FC02004BFC02002CF0020042FC0200AD
:109FC800BB0B030070FC020050E000204CE00020B6
:109FD80054FC020040F0020074FC02007AFC02000B
:109FE80059A401002BA4010009B1000087FC02005C
:109FF8007FFC020089FC02009209030085FC020034
:10A0080042F20F7373B58B4228BF0B4605680446AE
:10A01800052168460D4A0DF0C9F9064663682846C9
:10A028000B225B680A4910F0E1F963683246694619
:10A0380028465B6810F0DAF963681B2228465B68DB
:10A04800044910F0D3F902B070BD00BF5B0D0300E6
:10A05800A7FC02008BFC020000210123064A904263
:10A0680006D8064A01B901231360054B18607047EA
:10A07800012140085B00F2E740420F004CE000205D
:10A0880050E000200122014B1A70704758F100205F
:10A09800014B00201960704768E000200148FFF775
:10A0A800AFBF00BF70F0020010B5064B0C46186831
:10A0B800FFF752FB2146BDE8104003460F22024835
:10A0C800184700BF68E0002070F002000122F8B5D0
:10A0D800084B094D094E1A70D5E900470CB92C6098
:10A0E800F8BD214630463A4600F01EF8241A0644C8
:10A0F800F4E700BF59F100205CE000205AF100208D
:10A1080010B9074B18707047064B1B781BB141F20A
:10A11800883016F041BCA42000210CF00FBD00BF10
:10A1280058F1002059F100202DE9F84380460E46E9
:10A138000424DFF870901C4F99F8005095B909F085
:10A1480001FF28463246414609F0AEFE054609F0B1
:10A1580003FFE5B101233B7099F8003073B930462D
:10A16800BDE8F88332464146002009F09DFE0546C9
:10A17800EFE72046651EFFF7C3FF2C46002009F0D5
:10A18800D7FE0028EBD03B78002BF2D1E7E73B78ED
:10A19800002BE4D0013C2046FFF7B2FF3B78002BB0
:10A1A800CAD1DCE759F1002058F10020014B0360C7
:10A1B8000020704780F0020070B50D461646044630
:10A1C80038B331B32022002122F0E0F92888112287
:10A1D800022101F04FF90028E06005DA24F0AEFB17
:10A1E8000D4B1858404270BD3246294601F09CF983
:10A1F8000028E06802DA01F06FF9EFE70121A368AF
:10A2080044F8330004EBC3020B4491800020A360A0
:10A21800E9E76FF00D00E6E70C000000F0B5044632
:10A228009BB00F4615460021302202A822F0AEF955
:10A23800002C00F0A180002D00F09E809DF80830D1
:10A2480023F03F0343F01B038DF8083016F096FF08
:10A258004B4A0026A0FB020302FB013110F58040A7
:10A2680041F10001C00B40EA41400023444AC90BB8
:10A278000CF0E4FF41F2C6034FEA106C5A430302A4
:10A288004CEA012C03F47F0343EA0C03C4E90401FC
:10A2980043EA0063000A00F47F400343A26112BA54
:10A2A800E0680C930D9230223346CDE9006602A98E
:10A2B80001F066F9002810DB314630220EA822F0A2
:10A2C80065F9A1683A46204610F0B5F9B04206DAB9
:10A2D80024F034FB2B4B185840421BB0F0BD42D041
:10A2E800E06830223346CDE900660EA901F0AAF9EC
:10A2F8000028EDDB302839D1D4E90412149B1BBAAD
:10A30800964208BF8B4202D06FF01500E5E7159B17
:10A31800A2691BBA9342F7D19DF8383003F00703BE
:10A32800042BF1D19DF839301BB3189B199A1BBA2D
:10A3380012BA53EA0201E7D0AA60002293420DDA6A
:10A3480011498B4202D8C5E90032DDE70F4A9B1854
:10A3580062EB02020020C5E90032BEE70B495B1838
:10A3680042F10002F6E76FF07300B6E76FF079008C
:10A37800B3E76FF00F00B0E76FF00D00ADE700BF77
:10A3880040420F000C0000007F7EAA838081557C2C
:10A3980008B504480FF0BCFBBDE8084002480FF0C0
:10A3A800B7BB00BFE3FC020018FD02002DE9F0472F
:10A3B80006460C4600AF002936D0D1E90012E9461E
:10A3C8008AB06D46A3684FF0050AA8461F48C5E93C
:10A3D8000723C5E9050148F810AF002342464FF4AA
:10A3E80021511B48FFF7A2FBD4E90312CD4663694C
:10A3F800AD461848C5E90723C5E90501C5F810A009
:10A40800002342464FF421511148FFF78FFBCD46F8
:10A41800E3690121104A0E480FF0D2FFA369012118
:10A428000E4A0B480FF0CCFF012E07D1EFF305833E
:10A438000B4A31460648103B0FF0C2FF2146304612
:10A448000BF07AFBBD46BDE8F08700BF46FD020071
:10A45800F4EC020075FD0200A4FD0200B3FD020049
:10A46800E1FD020030BFFFF7FDBF00BF2DE9F0415D
:10A4780005460B4EDFF82C80324606EB0807CC1B4E
:10A488002046094922F067F9A01942460021083CF4
:10A4980022F07CF86C6707F10800BDE8F08100BF86
:10A4A800000000000800000024ED0200074A93683D
:10A4B80093F90E10002907DB526993421FBF044A23
:10A4C800536843F080535360704700BFD0EE0020BC
:10A4D80000ED00E070B52A4C06460D4629482A4989
:10A4E80010F009F8A36ADB0647D52648274910F07B
:10A4F80002F81120A36A1C0704D5224824490FF04A
:10A50800FAFF12201E4CA36A990712D521491D484B
:10A518000FF0F1FF636BA26A120609D501211E4AEA
:10A5280018480FF04DFF1EB1A36A23F08003A36201
:10A538001320134CA36ADE0704D5124817490FF0FD
:10A54800DAFF1420A36A9C0604D50E4814490FF0BC
:10A55800D2FF15200A4B9A6AD10658BF9A6A9A6A9E
:10A56800920642BF5A6A22F400525A629A6A42F02C
:10A57800FF029A6200232B7070BD1020BAE700BF5B
:10A5880000ED00E0F4EC0200F4FD02000AFE020017
:10A598003DFE020050FE020068FE02007EFE020040
:10A5A8009DFE020010B5244C244925480FF0A3FF56
:10A5B800A36A99013ED5224822490FF09CFF1E202C
:10A5C800A36ADA0104D51E481F490FF094FF1F2023
:10A5D800194CA36ADB0204D519481C490FF08BFFFC
:10A5E8000220A36A1C0304D5154819490FF083FFFC
:10A5F8002120114CA36A590304D5114815490FF0BD
:10A608007AFF2220A36A9A0304D50D4812490FF055
:10A6180072FF2320084CA36ADB0304D508480F49BE
:10A628000FF069FF2420A36A6FEA03436FEA13431C
:10A63800A36210BD1D20C3E700ED00E0CCFE0200C0
:10A64800F4EC0200E4FE0200F7FE020011FF020033
:10A658003BFF020059FF02007EFF020098FF020044
:10A6680070B5294C06460D46284829490FF043FF86
:10A67800A36AD9043CD5254826490FF03CFF17208A
:10A68800A36A1A0504D5214823490FF034FF18207E
:10A698001D4CA36A9B0512D51C4820490FF02BFFBF
:10A6A800A36BA26A100409D501211D4A17480FF0AF
:10A6B80087FE1EB1A36A23F40043A3621920124C3B
:10A6C800A36A590504D5114816490FF014FF1A203A
:10A6D800A36ADA050ED50D4813490FF00CFF1B20AD
:10A6E800094A936A43F47F43936200232B7070BD39
:10A6F8001620C5E7A36A9B04F2D504480B490FF05E
:10A70800FAFE1C20ECE700BF00ED00E0F4EC0200CC
:10A71800C3FF0200D9FF02003DFE0200EAFF02006B
:10A728000300030018000300330003009DFE02002D
:10A738002DE9F0478AB0694B0446D3F804A089464E
:10A748001646002500AFCAF3080885F31188BFF341
:10A758006F8F02F07F43B3F17F4F1ED1D3071CD414
:10A76800500603D4110708D4012508E05C495D4868
:10A778000FF0C1FE16F0040600D04C460025002359
:10A78800FB71A8F10303092B00F28680DFE803F0D0
:10A79800077C7F798484848484822C46EFE752493D
:10A7A80050480FF0A8FE00234C4EFB71F36A9A073D
:10A7B80005D54E494B480FF09EFE002329E0F36A69
:10A7C800002B01DA4A49F5E7F36A5B00F5D54949F8
:10A7D80044480FF090FE7369A26943F48073736173
:10A7E800BFF34F8FBFF36F8F736932F8022C23F4D6
:10A7F80080737361BFF34F8FBFF36F8F4DF6027392
:10A808009A4228D1236801213B4A36480FF0D8FDE7
:10A818002368FA79DAB907F1080604F1200C324600
:10A8280020686168083403C264451646F7D17A6A1D
:10A83800002D4ED0C2F3080121B96FEA52226FEA07
:10A8480042227A62184607F10801FFF7AFFD283760
:10A85800BD46BDE8F087B36ADBB22BB10120F91D14
:10A86800FFF738FE0346D4E7B36A13F47F4F04D0EA
:10A878000120F91DFFF7F4FEF4E7B36AB3F5803F52
:10A888009BD3FFF78FFEEDE70020F91DE8E70020D6
:10A89800F91DEFE719498DE7194A6E461AF4F87F52
:10A8A8008AB0184B18BF13466A461749C2E9051300
:10A8B800A8F11003D3614FF400731384134B42F8CB
:10A8C800103F00234FF411510648FFF72FF9B54602
:10A8D80073E722F4FF7222F00102B2E700ED00E014
:10A8E80079000300F4EC02009C000300B3000300AD
:10A8F800D4000300E2000300010103001D0103006E
:10A90800600003004B000300410103000400000144
:10A91800064B5A6942F010025A615A6942F4806241
:10A928005A615A6922F008025A61704700ED00E046
:10A93800EFF30880EFF3098101B57246FFF7F8FEDF
:10A9480001BD00BF002080F31488BFF36F8F002083
:10A9580080F30A8880F30B8814F055FE00200E4916
:10A968000860BFF34F8F0D4880F3088800F02CF87B
:10A97800202080F311880A484FF40061401880F3C2
:10A988000988EFF314800221084380F31488BFF389
:10A998006F8F00F00FF9000094ED00E0882201208D
:10A9A80048090120002318460649D1F89020C2F32F
:10A9B8000722934200DB7047C1F89830C1F8A00025
:10A9C8000133F6E700ED00E010B572B6002484F319
:10A9D8001388FFF7E7FF23464FF0FF300C4A03F1D7
:10A9E80020010133102B42F82100F8D100234FF049
:10A9F800FF30074A03F160010133102B42F82100B0
:10AA0800F8D162B6BFF34F8FBFF36F8F10BD00BF91
:10AA180000E100E0084B9B6883420BD1EFF305830C
:10AA280043B1064B5A6842F080525A605A6A22F47F
:10AA380000425A6216F029BBD0EE002000ED00E07B
:10AA48006FF00A01084A9368D967084998674B6804
:10AA580043F080534B60002383F31188BFF36F8F5B
:10AA68009368D86F704700BFD0EE002000ED00E07B
:10AA7800104A936883F88100EFF31183202383F34E
:10AA88001288BFF36F8F4FF00061536920F0FF0009
:10AA98009360094A5160596F084A1160002193F880
:10AAA800812010439A6F996782F31188BFF36F8FE3
:10AAB800704700BFD0EE002000ED00E06CE0002001
:10AAC80010498A6882F881E04FF030001044EFF3B3
:10AAD800098C80E8F01F74467046FFF7C9FFA64648
:10AAE80008498A68864602F1300090E8F01F8CF326
:10AAF800098802F1000004B50FF007FDBDE8044025
:10AB080070470000D0EE00201EF0040F0CBFEFF3DA
:10AB18000880EFF30980816911F8021C0229FFD02F
:10AB280001B50FF0DDFC01BD40B2002807DB0123B1
:10AB38004109034A00F01F00834042F82130704762
:10AB480000E100E040B200280CDB0122064943097D
:10AB580000F01F008240203341F82320BFF34F8FBD
:10AB6800BFF36F8F704700BF00E100E0054B42095B
:10AB780053F82220012300F01F0003FA00F01040D0
:10AB8800704700BF00E100E040B2002801F1010178
:10AB9800ACBF00F16040064B4FEA4111C9B2ABBFF0
:10ABA80000F5614000F00F0080F800131954704759
:10ABB80014ED00E00B4A08B50B4B22F07F029A60B7
:10ABC800BFF34F8FBFF36F8FD3F8882022F4700242
:10ABD800C3F888200BF09CF80CF06CF800F050F8E3
:10ABE8000BF0D6F80080000000ED00E042F8203CB1
:10ABF800009B0D4942F81C3C019B21F0010142F8E1
:10AC0800183C029B42F8081C42F8143C4FF0807331
:10AC180042F8043C002383674FF43C43203A026522
:10AC2800C0F88030704700BF7991000000B50D4B27
:10AC380015469860426F0C4B0E461A60436E83F3BC
:10AC48000B882C4686F309884FF00000074B98477D
:10AC580020464FF000014FF000024FF00003044C73
:10AC6800204700BFD0EE00206CE000201BA50100AB
:10AC7800799100001022014B1A61704700ED00E045
:10AC8800002320210348C2180133412B82F8001306
:10AC9800F9D1704700E100E008B5EFF30583064AF3
:10ACA800103B02EBC30152F8330049688847BDE8FE
:10ACB8000840FFF7FBBB00BF64EA02001FB5094C60
:10ACC800094A23460121094800F012F90023039399
:10ACD800074B0121E41A01A80193029400F012F92C
:10ACE80004B010BD0000042080C5002080F00200E0
:10ACF800E8D3002010B50C7A0B6804F01F0223F08B
:10AD08001F031A43CB68640923F01F03054943EA6C
:10AD1800440343F00103C1F89800C1F89C20C1F82E
:10AD2800A03010BD00ED00E010B50A4BD3F890300C
:10AD3800C3F30723013B984208D901210346064A79
:10AD480006480FF03DFB6FF0150010BDFFF7D2FF6E
:10AD5800FBE700BF00ED00E058010300D4EC02005F
:10AD68002DE9F04F8946144606464FF00008514D2C
:10AD780085B0C84527DAD6F804A0BAF1000F44D048
:10AD8800BAF11F0F17D91AF01F0F14D1D6F800B057
:10AD98001BF01F0F0FD158460FF0DEFB07460AEBDA
:10ADA8000B0001380FF0D8FB874210D06FF0150761
:10ADB800414A3B4601E04346404A012140480FF0E2
:10ADC800FFFA6FF01504204605B0BDE8F08F17F1C3
:10ADD800160FEDD0BC42EBDDC5F89870D5F89C1085
:10ADE800C5F89870D5F8A03021F01F0143F01F0B6B
:10ADF800D6E900321A44994202F1FF3A1DD1D345EF
:10AE080007D13146F8B20FF0B0FB08F101080C3653
:10AE1800AFE73146C5F89870D5F89C3022F01F028C
:10AE280003F01F031343C5F89C30E0B20FF09DFBFD
:10AE380010F1160FC5D0441CE7E7C5F89870D5F88F
:10AE4800A020013B23F01F0302F01F021343D34548
:10AE58003146E0B2C5F8A030E8D00FF086FB10F11B
:10AE6800160FAED0C5F89870D5F89C209DF808301C
:10AE78000BF1FF3B62F304038DF80830D5F8A030DE
:10AE88009DF808205B0863F347128DF80820D6E97F
:10AE980000321344009323F01F035B44A3EB0A031F
:10AEA800013023F01F036946C0B20393FFF73CFF4C
:10AEB800BEE700BF00ED00E0A10103007E01030032
:10AEC800D4EC02000522044BC3F89420BFF34F8F43
:10AED800BFF36F8F704700BF00ED00E0BFF35F8FD7
:10AEE8000022024BC3F89420704700BF00ED00E039
:10AEF80010B5034C2278FFF733FF207010BD00BF58
:10AF08006AF100202DE9F74F294D8A4606464FF091
:10AF18000008AB46274FD0451BDAD6F80490B9F1A4
:10AF2800000F3FD03168084601910FF015FB0199D9
:10AF3800044609EB010001380FF00EFB84424FF084
:10AF480014021D4B08D002FB08F36FF015024BF8F2
:10AF5800032003B0BDE8F08F14F1160F2C60F8D071
:10AF68001978A142F5DD02FB08B0C7F89840C7F888
:10AF78009840D7F89C4000F10801007B64F3040076
:10AF88000871D7F8A0000C79400860F347140C71D9
:10AF9800D7F89C1021F01F016960D7F8A01021F0A4
:10AFA8001F01296108F1010814350C36B3E700BF09
:10AFB80070E0002000ED00E06AF10020F0B54149A2
:10AFC800414CD1F890302568C3F307239D4287B0E0
:10AFD80075D80020FFF782FF3C4BC1F8C03085428E
:10AFE80016D13B4C01A82570FFF7E0F8002506466E
:10AFF800384FAE4213D1002023783249D1F890203F
:10B00800C2F30722934254DBFFF75CFF00202FE0D6
:10B01800616801EB0011FFF76DFE0130DFE7019970
:10B02800280101EB0513DA683A40B2F5001F21D078
:10B03800B2F5800F2BD0B2F5801F38D15A689B68C3
:10B048000958013B22F01F0003440120844623F0E5
:10B058001F0340EA4C10CDE902218DF8100002A927
:10B0680020780593FFF760FE00281DDA6FF01500C1
:10B0780007B0F0BD5A689B680958013B22F01F00D1
:10B0880003444FF0020C012023F01F03E1E75A6844
:10B098009B680958013B22F01F0003444FF0000C45
:10B0A800062023F01F03D4E72378013323700135EA
:10B0B8009FE7C1F89830C1F8A00001339EE74FF030
:10B0C800FF30D5E700ED00E08CF00200AAFF440055
:10B0D8006AF100200000F0FF08B5024B1B68984792
:10B0E800002008BD84E00020034B044A18609378D0
:10B0F80043F002039370704784E0002070CA002078
:10B10800F0B587B007460E4614460021102268465F
:10B118001D4621F03BFA02238DF80230054B2A46E2
:10B1280021466846CDE9047601930CF0F7FB07B099
:10B13800F0BD00BFA5A5010008B50649064821F0E5
:10B148000701C1F1005202F580220EF031FC002007
:10B1580008BD00BF8FBB022088E00020012830B561
:10B168000C4609D0042817D100230022C1E9002386
:10B1780000238B60002030BDEFF31185202383F37B
:10B188001288BFF36F8F084B0FCB84E80F0085F34D
:10B198001188BFF36F8FEDE723F0D0FB1622034B26
:10B1A8001A504FF0FF30E6E7B0D800200C0000003E
:10B1B80001287FB50C4623D0042825D1002300227E
:10B1C800CDE900230023029315F0D8FF174DC30BD8
:10B1D800C0F30E00A0FB0506009A43EA41439A1803
:10B1E800019B43EBD131C30B029843EA4643184411
:10B1F8000F4BC4E900219842A0600ED800200AE055
:10B208006946FFF7ABFFDFE723F098FB1622094BEF
:10B218001A504FF0FF3004B070BD013241F1000107
:10B22800401BC4E90021A060E8E700BF00CA9A3BC0
:10B23800FFC99A3B0C00000070B541690446867A44
:10B248000A4D59B1437ADB0706D42C2303FB065376
:10B258005B6A1B689B689847002363612C20214622
:10B2680006FB0050BDE8704015F03ABD1CD3002025
:10B278002C21827A054B01FB02339A6A1B7F801AC4
:10B288001B3323F00303B0FBF3F070471CD30020FB
:10B2980038B52C24827A064B04FB02335B6AD3E967
:10B2A80001240C601568FFF7E3FF04FB005038BD6C
:10B2B8001CD300202DE9F04F85B00546684691461D
:10B2C8001C4690469A46039115F05AFFDDE900673F
:10B2D800EFF3118B202383F31288BFF36F8F698BF1
:10B2E800002942D02B8B8B4226D9002200232846E6
:10B2F8000AF0C6FE0446F8B18BF31188BFF36F8FCE
:10B30800039B002B4FD032463B46684615F05CFF46
:10B318002C21A27A2C4B204601FB02335B6A03A93D
:10B328001B681D68DDE90023A847606100283BD140
:10B338002046FFF781FF31E0698B4B1E6B838BF34F
:10B348001188BFF36F8F2B7F2A8BAC6A1B3323F0D6
:10B358000303521A02FB03441B4B1C4AEB1A9B10B3
:10B368005343A3722B7FE372CAE78BF31188BFF3B1
:10B378006F8F54EA090409D023F0E0FA144A154BF8
:10B3880012589A420ABF8846C846C24642465346A1
:10B3980028460AF075FE04460028B1D1002420464C
:10B3A80005B0BDE8F08F6361012300252381039B6D
:10B3B80029466382E27A656004F1180021F0E6F814
:10B3C80063692582E360EAE71CD30020A38B2EBAC9
:10B3D80008000000B0DD002070B52C250B4C00B92A
:10B3E80070BD037A4668013BDBB20372002BF7D1CC
:10B3F800C3604360837A05FB03431B6A13B1984714
:10B408003046ECE7FFF718FFFAE700BF1CD300202F
:10B418000122024B0020C3F84025704700900340EA
:10B4280020B1034B800143F001031847704700BF68
:10B4380070ED0200F7B506460D460D488AB28368DE
:10B4480031461B689847002810DA00240CE02F1BAF
:10B45800042F28BF042713F01BFD3A46019001A9C9
:10B46800301921F078F93C44A542F0D803B0F0BD7A
:10B478003CEA02002DE9F04105460E461746134CFA
:10B48800DFF84C80444508D323F058FA6A22114B60
:10B498001A504FF0FF30BDE8F0812368AB4200D06E
:10B4A8008BB93A4631462846A368984758B123F0E5
:10B4B80045FA0022074B3146C2503A462846E3680F
:10B4C800BDE8F04118471034DCE700BF6CEC02001F
:10B4D8008CEC02000C00000037B5694601AA05464D
:10B4E800FDF79AFE044648B923F028FA09224FF0DE
:10B4F800FF340C4B1A50204603B030BD4FF0FF32DA
:10B5080001984FF0FF330FF092F8009B20469B689C
:10B518009847044601980FF08CF828460EF018FB5F
:10B52800E9E700BF0C00000073B50D4616466946F2
:10B5380001AAFDF771FE0446B0B1009B9B69DBB11F
:10B548004FF0FF324FF0FF3301980FF070F8009B77
:10B558002046324629469B699847044601980FF0D1
:10B5680068F8204602B070BD092323F0E7F9034AC2
:10B578004FF0FF341350F4E75F23F6E70C000000A8
:10B588002DE9FF410D46164602A903AA1F46FDF7FD
:10B5980043FE0446E8B1029B5B6A13B34FF0FF32E7
:10B5A8004FF0FF3303980FF042F80B9B20460193AE
:10B5B8000A9B32460093029B2946D3F824803B46D7
:10B5C800C047044603980FF034F8204604B0BDE89D
:10B5D800F081092323F0B2F9034A4FF0FF341350E6
:10B5E800F3E75F23F6E700BF0C00000073B50D46D4
:10B5F8001646694601AAFDF70FFE0446B0B1009B46
:10B608005B6BDBB14FF0FF324FF0FF3301980FF067
:10B618000EF8009B2046324629465B6B9847044645
:10B6280001980FF006F8204602B070BD092323F0F8
:10B6380085F9034A4FF0FF341350F4E75F23F6E728
:10B648000C0000002DE9FF410D46164602A903AA89
:10B658001F46FDF7E1FD0446E8B1029B9B6A13B360
:10B668004FF0FF324FF0FF3303980EF0E0FF0B9BD3
:10B67800204601930A9B32460093029B2946D3F841
:10B6880028803B46C047044603980EF0D2FF204668
:10B6980004B0BDE8F081092323F050F9034A4FF0C4
:10B6A800FF341350F3E75F23F6E700BF0C000000F8
:10B6B8002DE9F04F4FF00008C24646469DB0CDE94F
:10B6C800050108A814461D4615F05AFDDDE90823B2
:10B6D800DDE9059BCDE902230DAB0A93BBF1000F11
:10B6E80022D1002E72D0B5F1FF3F08BFB4F1FF3F61
:10B6F80017BF4FF47A724FF0FF34A4FB024302FBEA
:10B7080005331CBFE40B44EA4344069B4FF48272A2
:10B71800009341465046059B01940EF079FF074679
:10B7280038461DB0BDE8F08FD9F80000002829DBA5
:10B738000CAA0BA9FDF770FD074618B34FF0FF32AE
:10B748004FF0FF330C980EF072FF1CAB01930AAB5D
:10B7580000934FF481724B4639460B980EF058FF10
:10B7680010F1780F034612D10022002308A815F023
:10B7780007FDDDE90834CDE9023400240C980EF009
:10B7880058FF254609F108090BF1FF3BA6E713F11D
:10B79800120F0C980CD1BAF1000F03D00EF049FF2C
:10B7A8000126EFE7DDF82CA0B8460EF042FFF7E7D8
:10B7B80007930EF03EFF079B002BE3DA23F0BEF859
:10B7C8005B42384A4FF0FF371350A9E7DDE90223FF
:10B7D80008A815F0F9FCDDE9084522462B46DFF8F4
:10B7E800C8800A990DAC091B891008FB01F1204695
:10B7F8000BF07EFC00F10B020B2A0346DED82B4F20
:10B80800174117F00107D9D1B9460A94DDE9054572
:10B8180085B9B9F1000F83D0002F81D1DDE902236A
:10B8280008A815F0D1FCDDE908452B46254322463A
:10B83800D7D175E72068E68000282CDB0CAA0BA975
:10B84800FDF7EAFC824618B92023E380013722E09D
:10B858004FF0FF324FF0FF330C980EF0E8FE0AABC2
:10B86800514640F2031200930B9823460EF0D0FE87
:10B8780082460C980EF0DDFE1AF10B0F0ED0BAF1CD
:10B88800000F04D023F05AF8CAF1000399E7B4F97D
:10B898000630002BDAD10834013DB9E74FF0010931
:10B8A800F9E700BF0C000000CDCCCCCC7EF7FFFF41
:10B8B800F7B507460E461446FDF7C8FC051E18DB0B
:10B8C8003CB97B1E012B04D8022E17D0012E08BFCD
:10B8D8000624F1B201ABA2B2B8B202F017F9061E03
:10B8E8000EDA28460EF034F923F028F8104B764289
:10B8F8001E504FF0FF35284603B0F0BD1124E8E78D
:10B90800002301984360C366703015F0B3F90198BD
:10B91800883015F0BBFA062C02D1019810F0D3FA42
:10B928004FF440432846034A0199FDF7CDFCE2E76E
:10B938000C000000C0F0020037B5069D0446E3B9CC
:10B948000093002200230E4902F0BCF904F17000B4
:10B9580015F090F904F1880015F098FA214605F1E0
:10B96800700015F0B2F9204610F0ADFA05F1880024
:10B9780003B0BDE830400AF0AFBD03B030BD00BF32
:10B9880099A601002DE9F7430C46DDE90A9858EA23
:10B99800090107464D460C9E13D014F1690F02D0D9
:10B9A80014F10B0F0DD1684615F00EFCDDE90023EC
:10B9B80013430ED114F1690F0CBF6FF00B046FF035
:10B9C800680422F0BBFF244B64421C504FF0FF3048
:10B9D80037E0B8F1FF3F08BFB9F1FF3F0DD04FF492
:10B9E8007A71A5FB013201FB0822DB0B43EA4243D3
:10B9F80032689A4294BF32603360D7F8900008B139
:10BA08000AF002FB14F1690F35680ED14FF40044B7
:10BA180040F2E73000214FF47A720023E5FB04017D
:10BA28000BF016FC0BF08AF801E00B34EED033680B
:10BA38005B00642B28BF64233360D7F8900018B9E3
:10BA4800002003B0BDE8F0834FF0FF324FF0FF3322
:10BA58000AF062FAF4E700BF0C00000070B5064671
:10BA68001D460C4609B1142A07D0162322F066FF9A
:10BA7800154A13504FF0FF3070BD01F057FF1022E8
:10BA88000146204620F020FC0028EED0206900F076
:10BA9800A1FF58B996F99E00002804DC01F008F8C7
:10BAA80020B90223E2E700F095FFF9E721462DB11E
:10BAB80012F071FB002804DA4342D7E712F0ACFB1E
:10BAC800F8E70020D8E700BF0C00000038B540F2C6
:10BAD8000314A14203465AD0B1F5827F0ED204293D
:10BAE80021D0B1F5817F29D0032917D022F026FF74
:10BAF8005F22464B1A504FF0FF3013E045F21B44CB
:10BB0800A14273D045F2214081426AD040F205102B
:10BB18008142EBD11268C3F890200DE0C06EC0F3EB
:10BB28004000800338BDC16E126821F00201520442
:10BB380048BF41F00201C1660020F3E79468D2E9EA
:10BB480000018288D50718D50A6894425BD004257D
:10BB580003F1700414610A68547B65F30504547397
:10BB68000A68947B6FF3451494730A68D4686FF37A
:10BB78009434D4600A6814320A608288520703D465
:10BB8800DB6E13F0050FD7D06FF07700CAE71168A6
:10BB98008888C5070FD552681068C06810F4FE1F62
:10BBA80002D1D86EC40703D5C88840F00100C88008
:10BBB8001068143010608A88500742BFCA8842F063
:10BBC8000402CA80DA6E520742BFCA8842F00802ED
:10BBD800CA80DB6EDB07AFD5CB8843F01003CB8080
:10BBE800AAE7DA6E42F00202DA66A5E700231468D3
:10BBF80019461A460EF0ACFD6FF00043984294BF08
:10BC08002060236098E76FF00B008BE70C000000C2
:10BC180013B50021B0F89C300446C3F34103032B4D
:10BC28004FF000024FF00003009118D110F0D1FB43
:10BC380004236360E36E204643F00403E3660EF0DA
:10BC480068FD204602F01AF8031E0BDA22F076FE91
:10BC5800054A5B4213504FF0FF3002B010BD02F0AE
:10BC680031F8E5E70020F8E70C00000037B5054695
:10BC78000C4611BBB0F89C300022C3F34103032BE0
:10BC880000914FF000030DD110F0A3FB031E0CDA56
:10BC980022F054FE0E4A5B4213504FF0FF34204608
:10BCA80003B030BD02F00EF8F0E7EB6E284643F023
:10BCB8000103EB660EF02DFDF1E74C1E22F03EFE6F
:10BCC800012C94BF86221622014B1A50E5E700BFCB
:10BCD8000C00000013B5044610F028F9031E07DA1B
:10BCE80022F02CFE0C4A5B4213504FF0FF3006E066
:10BCF800B4F89C30C3F38113022B02D0002002B0A9
:10BD080010BD63680022009320460023034901F018
:10BD1800D9FF031EF2DAE3E70C00000099A6010040
:10BD28002DE9F043B0F89C309146C3F34102022A52
:10BD38000446884685B036D0012AC56E0ED122F059
:10BD4800FDFD15F0040F08BF7822244B18BF626868
:10BD58001A504FF0FF3005B0BDE8F08315F002052A
:10BD6800C3F3811319BF002600274FF4C0360027FC
:10BD780018BF1B4D012B426817D1009200230022E7
:10BD8800184901F09FFF002801DA434217E0636871
:10BD98004A46029341462B462046CDE9006710F0FB
:10BDA800A2FA0028F1DB0020D5E72B460292CDE964
:10BDB80000674A4610F097FA031E05DA5B4222F044
:10BDC800BDFD064A1350C4E763680022009320466D
:10BDD8000023044901F076FFE3E700BF0C000000F0
:10BDE80087A6010099A6010013B5044610F041F991
:10BDF800031E08DA5B4222F0A1FD094A13504FF0F6
:10BE0800FF3002B010BD00220023204605490094EF
:10BE180010F0DFFA002801DA4342ECE70020F0E7EF
:10BE28000C00000041B900002DE9F04F16464FF014
:10BE3800FF384FF0FF390A228FB05B0604460D46E3
:10BE4800CDE90C89189F0B9203D4C36E13F002033B
:10BE58004BD000220023CDE90C2308A815F090F957
:10BE6800DDE90C23DDE9088908A815F089F9DDE981
:10BE78000823CDE9062363680022009320460023A7
:10BE8800284901F01FFF031E37DB4FF0000A0DF1B0
:10BE98002C0B6168DDE90C23002F38D0CDE9022393
:10BEA800199B0491009332463B4629462046CDF81B
:10BEB80004A010F00DFB002826DADDE90C2301466A
:10BEC800CDE90023204642464B46CDF808B0FFF79F
:10BED80059FD002818DBDDE9062308A815F074F9D8
:10BEE800DDE90823CDE90C23D3E70CAA052102F0EC
:10BEF8000FF84FF4A0220023AFE722F01FFD0A4AF3
:10BF08005B4213504FF0FF300FB0BDE8F08FCDE922
:10BF1800002302913B4632462946204610F084FA17
:10BF2800C9E700BF99A601000C000000F7B5C36E71
:10BF380004469D070F46164614D44FF0FF334FF0C2
:10BF4800FF326946CDE900230EF0EEFC031E09DA44
:10BF580022F0F4FC384A5B4213504FF0FF35284674
:10BF680003B0F0BD002204F1700000230AF088F845
:10BF7800044628B922F0E2FC0B222F4B1A50ECE7BA
:10BF8800FDF764F9051E06DA20460EF0C2FB2046CE
:10BF980001F074FEE1E704F1700014F0AFFEA8B1FF
:10BFA80090F83330990711D5E36E284643F0010322
:10BFB800E3660DF0CDFD20460EF0ABFB204601F008
:10BFC8005DFE22F0BBFC71221B4BD7E7B4F89C3016
:10BFD8005A0508D522F0B2FC7122174B1A50284690
:10BFE8000DF0B6FDD0E723F40073A4F89C3077B1C8
:10BFF8006EB132683846182A28BF182204F12C017D
:10C0080020F0A9FBA38D012B09D1082333604FF43D
:10C01800404321462846094AFDF756F99FE7022B77
:10C0280001D11823F2E728460DF092FD22F086FC94
:10C038008622014B1A50A7E70C000000C0F002004E
:10C048002DE9F04F8FB0029200934FF0FF32DDE9F7
:10C05800197A4FF0FF33CDE90423189B06465C0696
:10C068000D4603D4C36E13F002032FD00022002321
:10C07800CDE90423DDE90489189B06F1700413F067
:10C088000203019336D01022002109A820F07EFA7D
:10C0980004230D948DF8313001214B46424609A8FE
:10C0A8000BF026F800F10B010B29034618D88D4A2E
:10C0B8000A41D10714D4204614F01CFE0446F8B9EE
:10C0C80022F03CFC0B22884B1A500EE0042104AAF3
:10C0D80001F01EFF304604A90EF026FC031EC9DA43
:10C0E80022F02CFC804A5B4213504FF0FF300FB017
:10C0F800BDE8F08F42464B46204609F0C1FFDDE718
:10C10800D0E90398002F50D0BAF1000F4DD0B6F8FF
:10C118009A60DAF800B010F0F4FB94F83330C3F307
:10C1280002133B8094F83330C3F30213022B57D128
:10C1380000222823BBF1170FCDE9092340D9204657
:10C1480009A910F03CFE834610B96FF0680339E086
:10C1580020460A9910F030FC0028F6D12046E18EDE
:10C1680010F02AFC0028F0D10BF10802391D0BF160
:10C17800180352F8040B9A4241F8040BF9D1F6B2AD
:10C18800112E2DD1082607AB204609A909930A9636
:10C1980010F015FE0028D8D003887B80C4E90398E6
:10C1A8003B88012B1FD1CAF80060002D65D0EB68D1
:10C1B8000BB1AB68EBB922F0C1FB0C224A4B83E709
:10C1C8006FF01503C4E903985B4222F0B7FB464AB7
:10C1D8001350019B002B88D1204610F020FB84E7E8
:10C1E8006FF08503EEE7022B79D11823CAF80030E7
:10C1F800DBE7204610F00EFDDDF800A0064682457C
:10C2080028BF82464FF0000B574697B9009BC5F8E8
:10C218000CB09E4203D9AB6943F02003AB612B6994
:10C22800002B57D06969002937D00F2950D86F6182
:10C2380033E0AA684FEACB0352F83B1002EBCB007D
:10C2480021B922F07BFB1622274B3DE742682046A6
:10C25800BA4228BF3A460393029210F075FCDDE912
:10C26800022308B16923B0E7BA42EAD8A968BF1A1D
:10C2780019444A600BF1010BC7E7204610F0CAFCCD
:10C28800DDF800A00646824528BF8246029952463C
:10C29800204610F059FC0028E4D1019BE3B9204660
:10C2A80010F0BDFA189B13F0200F0CBF5046304613
:10C2B8001DE71744073222F007001030184488425F
:10C2C800B5D822F0070213441A68002AF1D1AEE764
:10C2D8001944F9E76B61E0E7C4E90398E2E78623CC
:10C2E80073E700BF7EF7FFFF0C0000002DE9F04F59
:10C2F80017461E464FF0FF324FF0FF338FB0CDE99F
:10C308000A23B0F89C300C46D9070546DDF8608052
:10C3180040F1B880C3F34103022B40F0B58018F018
:10C32800400F02D1C36E9A071ED500220023CDE923
:10C338000A23002E46D0DDE90A23CDE90C2308F4B0
:10C348008073CDE907760193002C3FD0002F3DD1B3
:10C35800E3688BB96FF01500434222F0EFFA4B4ABD
:10C368004FF0FF3613502DE013F00503E1D10421FF
:10C378000AAA01F0CDFDDCE7A3681A6807925A689B
:10C388005F60D4F80CA009920026DDE90C2337463B
:10C3980004A814F0F5FEDDE90423CDE90223089B87
:10C3A8007BB3EB6E13F0040013D06868404200289A
:10C3B80020EAE076D0DB18F0020F03D13146284698
:10C3C80010F0ABF830460FB0BDE8F08F4FF0000A20
:10C3D800DAE7DB07EBD4DDE90CB95BEA090312D134
:10C3E800C4B94346284608AA07A90EF0B1F9C319EB
:10C3F80050EA030744D15BEA090918D0019B002BD6
:10C4080038D13846D3E728460CA90EF08DFA002813
:10C41800E6DACCE74346284609AA07A90EF098F9B8
:10C42800074450EA070305D15BEA090302D16FF01C
:10C438000A0091E7A268F30002EBC60251680144C2
:10C448005160A26852F83610014407910899091AF8
:10C45800089109990029D1D101365645D1D0083320
:10C46800E660D018D25843680792099341600AB130
:10C47800002BCFD1DDE902230CA814F0A5FE8EE72E
:10C488001F46BBE7092368E7802366E70C00000026
:10C49800F0B585B01C46DDE90A67134602B3B0F86B
:10C4A8009C20C2F38112022A08D10A46CDE901670D
:10C4B80000210094FFF7C4FD05B0F0BD012A07D1A3
:10C4C8000A4600210A9405B0BDE8F040FFF70EBF08
:10C4D80022F034FA8622034B1A504FF0FF30EBE774
:10C4E8001046E9E70C000000F0B5B0F89C4085B0B4
:10C4F800C4F3811491B18E68CEB100231D46CF6874
:10C508000436AF4217D1022C1AD10C1D02940C68C4
:10C51800CDE900240022FFF793FD06E0162322F060
:10C528000DFA0B4A13504FF0FF3005B0F0BD0C2345
:10C53800F5E78623F3E756F835C001356344E0E7AD
:10C54800012CF6D100920022FFF7D0FEEDE700BFE4
:10C558000C00000038B5062914461A46049B42D040
:10C5680005DC002944D001290CD06D2351E029298C
:10C57800FBD1432C42D047DC102C51D0122CF4D1E3
:10C588000E2109E00F2C2CD00CDC032C1CD0042C21
:10C5980014D0022CE9D1092101F0BAFC00281BDAD9
:10C5A800434236E0262C19D0272CDED11B68042BF9
:10C5B8002ED1B0F89C30C3F3C20303E01B68042BF0
:10C5C80026D14368136007E0B0F89C10C1F38111CD
:10C5D8001B68042B1CD11160002038BDB0F89A10DC
:10C5E800F6E70A21D8E7012CBFD16FF07A00F4E70B
:10C5F800022C05D0212C05D0012CB6D10821CBE77F
:10C608001021C9E70D21C7E7482CAED11121C3E796
:10C61800162322F093F9034A13504FF0FF30DCE75A
:10C628000F21B9E70C00000070B50E46062E14461F
:10C6380005461946049A75D005DC002E77D0012EE0
:10C6480024D06D2347E0292EFBD11A2C00F38180DA
:10C658000F2CF6DD103C0A2CF3D801A353F824F074
:10C668006DC700004BC6000077C700004BC600002E
:10C678007FC700008BC700004BC600004BC60000F8
:10C688004BC600004BC60000A3C600000F2C2DD0DF
:10C6980005DC022C15D00D2CD3D1002070BD192C2F
:10C6A800CFD1B0F89C30C3F3C2000138012811D8AB
:10C6B80012B1B9B10878E8B923F40063A5F89C3041
:10C6C800EBE713460A46092101F0A6FB0028E4DA45
:10C6D800434200E06A2322F031F92B4A13504FF00D
:10C6E800FF30DBE71623F6E71323F4E713460A4681
:10C6F8000A21E9E7082AF5D1084600F0F9FF031EE8
:10C7080001DA5B42E7E700F065F90028ECD0B5F8FC
:10C718009C3043F40063A5F89C3000F05FFF85F877
:10C728009E00BAE7012C8CD16FF07A00B6E7022C94
:10C738000BD0212C05D0012C83D113460A460821A1
:10C74800C2E713460A460D21BEE713460A461021E2
:10C75800BAE7432CF1D0482C7FF473AF13460A464E
:10C768001121B1E713460A460F212846ACE71346C4
:10C778000A460E21F9E701232846BDE87040FFF775
:10C788006DB90023F8E700BF0C000000F0B51446AF
:10C798000D4687B069B162B1B0F89C30DA050AD4A9
:10C7A800802322F0CBF8194A13504FF0FF3007B01E
:10C7B800F0BD1623F5E7C3F38112012A03D1C3F3B1
:10C7C8004103022BECD1838D022BF2D10022ADF86C
:10C7D8000030C38D0592ADF8023000F1300201AF90
:10C7E80000F140033E4610685168083203C69A4279
:10C7F8003746F7D122686946182A28BF18222846E2
:10C808001FF0A9FF182300202360D0E70C000000C8
:10C818002DE9F041038C0546022B0F4616464FF0D2
:10C82800000488B029D14FF018082146424602A8D2
:10C838001FF0ACFE6B6AF3B1284601AA02A9CDF835
:10C8480004800FF07AFE031E07DA5B4222F076F8C6
:10C858000D4A13504FF0FF300AE0019D3268384608
:10C86800AA4228BF2A4602A91FF075FF2046356054
:10C8780008B0BDE8F0811623E8E722F05FF8162239
:10C88800014B1A50E6E700BF0C000000014B18608E
:10C89800704700BF94E0002010B4034C246824685B
:10C8A800A44610BC604700BF94E00020014B1B6801
:10C8B8005B68184794E0002038B54FF0FF324FF01E
:10C8C800FF3305461D480EF07DFA1D4B1B687BB1F2
:10C8D8001A684FF0FF344FF47A705BB9631C1BD1B0
:10C8E800184814F0C0FABDE8384014480EF087BA6A
:10C8F8001A46EEE7D9691B8C491B00FB0313002B72
:10C9080009DD9C4228BF1C461AB1116813460A4625
:10C91800E3E71146FAE700244FF4004540F2E73018
:10C9280000214FF47A720023E4FB05010AF090FC21
:10C9380002460B46034809F0C9FDD4E75CD2002043
:10C94800FCE1002080D90020F8B50EF0ABF94FF0DB
:10C95800FF3306464FF0FF321C480EF033FA1C49ED
:10C968000B682BB100224FF47A7E17461C683BB93E
:10C978003046FFF7A1FFBDE8F84014480EF03FBA73
:10C98800DD69188CAD1B0EFB0055002D9C460EDC96
:10C99800186892B94D680860AB4200D14860944667
:10C9A80093F822001F6067F3000083F8220054B157
:10C9B8002068234662460446D9E7106048688342E7
:10C9C80008BF4A60EBE72046F3E700BF5CD20020CF
:10C9D800FCE10020002808DD431E054800EB831019
:10C9E800044B984228BF002070470020704700BFC2
:10C9F80074D30020B4D3002073B50EF053F900238C
:10CA0800284ECDE9003304464FF0FF334FF0FF3294
:10CA180025480EF0D7F9336873B353F82C2902B1BF
:10CA28002C3AC4F1640401E013460A461D6B254400
:10CA3800002D10DC706803F12C01DB6A8142684626
:10CA480008BF736033600EF0A0F8AAB1D16A00295C
:10CA5800EAD02C39E8E74FF4004440F2E7300021EF
:10CA68004FF47A720023C5FB04010AF0F1FB024679
:10CA78000B460E4809F02AFD0B480EF0C0F9009C41
:10CA880074B101252C3C94F8380084F82950FFF73C
:10CA9800A1FF211D10F08BFDE46A0CB12C3CF2E7DC
:10CAA80002B070BDE4E100205CD20020F0D8002084
:10CAB800054B064A934205D0054A1068002808BF6E
:10CAC800184670470020704774D30020B4D3002064
:10CAD80028E20020F8B54FF0FF3305461746104806
:10CAE8004FF0FF320E460EF06DF90E4B1B680BB17E
:10CAF8001C6823B90A48BDE8F8400EF080B95A68A6
:10CB0800AA4200D022B93A46314628469B6898473F
:10CB18001CB1226823461446EBE72246FAE700BF19
:10CB28005CD20020A0E0002038B504460D460EF087
:10CB38004BF9072120460EF04EF920B3636843B144
:10CB480005B12B60002504F114000EF058F92846B1
:10CB580038BD4FF0FF324FF0FF330C480EF032F97A
:10CB68000B4BD3F8282142B96360C3F8284105B1BB
:10CB78002B6006480EF043F9E4E704480EF03FF94D
:10CB88006FF00205DFE76FF08505DCE75CD2002077
:10CB9800B0E0002038B504460EF016F90B21204607
:10CBA8000EF019F918BB65680DB3204611F077F936
:10CBB800E8B90EF077F84FF0FF334FF0FF32C5F8C1
:10CBC80020010E480EF0FEF805F58E710C480DF0A8
:10CBD800DCFF0A480EF013F90A4814F0AFFA0843CC
:10CBE80005D14FF400420023074809F06FFC04F117
:10CBF8001400BDE838400EF002B900BF5CD2002036
:10CC0800DCE10020D0D80020C0D80020F7B50EF015
:10CC180049F80023364E4FF0FF32CDE90033054680
:10CC28004FF0FF3333480EF0CDF83268B2B3A2F5B7
:10CC38008E7312680AB1A2F58E72C5F57A7701E093
:10CC480013460A46D3F820413919002947DC706891
:10CC580003F58E71D3F81C318142684608BF7360B2
:10CC680033600DF092FFCAB1D2F81C110029E7D049
:10CC7800A1F58E71E4E74FF4004540F2E73000215A
:10CC880004F57A744FF47A720023E4FB05010AF084
:10CC9800DFFA02460B46184809F018FC15480EF052
:10CCA800AEF8009C14B3154DA4F58E7494F8243195
:10CCB80013480133DBB284F82431A84205D3D4F8F1
:10CCC8001C419CB1A4F58E74F0E74268A24201D0E1
:10CCD8004030F2E7022BF2D8FFF75CFFEFE7641B66
:10CCE80014F57A7FC7D100221346D4E703B0F0BD0C
:10CCF800DCE100205CD20020C0D80020B4D30020A2
:10CD080074D3002038B504460EF05EF8656875B136
:10CD18004FF0FF324FF0FF3308480EF053F8084841
:10CD280005F58E710DF03BFF04480EF068F804F12C
:10CD38001400BDE838400EF062B800BF5CD2002095
:10CD4800DCE100202DE9F84306460F461D4DDFF8CB
:10CD580078904D4501D300242EE028460EF034F893
:10CD68006C6805F1140824B940460EF048F84035BF
:10CD7800EFE794F839309A0708D52388022B05D1B4
:10CD880080223046211D0DF063FFC0B994F875303C
:10CD98009B07E9D5A38F022BE6D18022304604F108
:10CDA80040010DF055FF0028DED03C2307B13D605F
:10CDB80040461C440EF023F82046BDE8F8830023C3
:10CDC800F4E700BF74D30020B4D30020F8B5134EA5
:10CDD8004FF0FF3204464FF0FF3330460D460DF05A
:10CDE800F1FF01230E4F84F82930183421463846C4
:10CDF8000DF0D5FE38460DF0C8FE0DF053FF29465C
:10CE0800024620460EF0C9FE00230022054809F01C
:10CE18005DFB3046BDE8F8400DF0F1BF5CD2002064
:10CE2800F4E1002050D900202DE9F74F80460D4647
:10CE38004FF0180B204CDFF884A0544507D245B1B9
:10CE48002B6833B1A34204D040345445F8D30024AE
:10CE580028E020460DF0B8FF676804F1140927B9E7
:10CE680048460DF0CCFF4034E7E7002607F17C0187
:10CE78000BFB067393F88C30DB0717D531F8043CAD
:10CE8800022B13D18022404601910DF0E1FE019959
:10CE980060B105B12C60182404FB06744846783448
:10CEA8000DF0ADFF204603B0BDE8F08F0136032E2C
:10CEB80001F11801DCD1D3E774D30020B4D30020EA
:10CEC8002DE9F84306460F461D4CDFF878904C458F
:10CED80007D246B1336833B1A34204D040344C453D
:10CEE800F8D3002024E020460DF06EFF656804F1B9
:10CEF8001408FDB195F8E5309A0707D5394695F835
:10CF0800E42005F1D0000DF0A3FE58B995F80D31D5
:10CF18009B070FD5394695F80C2105F1F8000DF05F
:10CF280097FE38B106B1346040460DF068FF012025
:10CF3800BDE8F88340460DF062FF4034C7E700BF04
:10CF480074D30020B4D3002038B54B1C04460D46DA
:10CF58001ED04FF0FF334FF0FF320E480DF032FF76
:10CF680021460D480DF01BFE0B480DF00EFE0DF08E
:10CF780099FE2946024620460EF00FFE00230022A5
:10CF8800064809F0A3FABDE8384002480DF037BF5B
:10CF980038BD00BF5CD20020ECE1002020D9002081
:10CFA80010B590F8253004469B0714D54FF0FF3292
:10CFB8004FF0FF3308480DF005FF214607480DF0F4
:10CFC800EEFD0022204611460EF0E7FDBDE81040B8
:10CFD80001480DF014BF10BD5CD20020ECE1002028
:10CFE80070B5104C4FF0FF324FF0FF3306460E4835
:10CFF8000D460DF0E7FE94F82230A18813F00103E6
:10D00800A26904F1080007D0022905D1964203D18C
:10D0180029460DF03FFE00B9002403480DF0EFFE4D
:10D02800204670BD04E200205CD2002038B5104CC8
:10D038004FF0FF324FF0FF3305460E480DF0C2FEA9
:10D0480094F82230A088C3F3400213F00103A169C9
:10D0580005D052B1022802D115B18D4200D000246A
:10D0680004480DF0CCFE204638BD1446F8E700BF52
:10D0780004E200205CD20020F8B5204C4FF0FF33CA
:10D08800074616461E484FF0FF320D460DF09AFE31
:10D0980094F82230DA072ED40222A761A28043F046
:10D0A800010306B323F00603134384F822302684D1
:10D0B8000DF0F8FD2146E06112480DF066FDE069CB
:10D0C800FFF7FAFB104C2B461035224618685968B2
:10D0D800083303C2AB421446F7D1084C08480DF098
:10D0E8008EFE2046F8BD23F0060343F00403268491
:10D0F80084F82230E6E70024F0E700BF04E20020CD
:10D108005CD20020FCE100200CE2002038B5054686
:10D118004FF0FF324FF0FF330E480DF053FE95F8F5
:10D12800224014F001040FD029460B480DF037FDBA
:10D1380018B10DF0B7FDFFF7BFFB012495F82230B9
:10D148006FF3000385F8223002480DF058FE2046A0
:10D1580038BD00BF5CD20020FCE1002000232DE98F
:10D16800F04385B08DF80F3048F2FE0317460A8861
:10D1780004469A420D4633D00B78FF2B04D14B78E6
:10D1880003F00F03022B2BD0294620460EF0E1F8BE
:10D1980060B190F82480FCB14246294620460097A9
:10D1A8000DF10F030DF089FE044610E04FF08008E2
:10D1B800F1E730464246294600970DF10F030DF07E
:10D1C8007CFE002818BF044640364E45F1D3CCB14A
:10D1D800204605B0BDE8F083114EDFF84890F4E72B
:10D1E80024B1012120460DF0E5FFDDE7FFF760FCE3
:10D1F80001210DF0DFFF04460028E9D1084D094E52
:10D20800B54204D305B0BDE8F04300F08FBB01215F
:10D2180028460DF0CFFF04460028D9D14035EFE766
:10D2280074D30020B4D300200023F0B587B0019355
:10D2380001AB05460F4616460DF0E3FD04460028EF
:10D248005ED000F11402D2E8AF3F002B58D0581E30
:10D25800D2E8EF1F994204D1C2E8EC0FBCF1000FED
:10D26800F6D1F0D1012B4DDC94F83930022F6FF351
:10D27800410384F8393041D1002E3FD02846019F20
:10D288000DF0A2FD6B68ABB394F83930DB0714D40A
:10D298001D4E4FF0FF334FF0FF321C480DF092FD4A
:10D2A800304604F118010DF07AFC336813B91848B8
:10D2B80013F0D9FD15480DF0A2FD0B2128460DF0FD
:10D2C8008AFD70B94FF0FF324FF0FF330F480DF071
:10D2D80079FD104804F12C010DF061FC0B480DF0AC
:10D2E8008EFD012F06D1201D02A90DF084FC2846D1
:10D2F8000DF0C6FE05F114000DF081FD002001E0DF
:10D308006FF0150007B0F0BDF4E100205CD20020FA
:10D3180050D90020E4E100202DE9FF410DF0C2FCC6
:10D3280000230746CDE902334FF0FF324FF0FF33B9
:10D338002E480DF047FD2E4B1C68B4B125684FF000
:10D34800FF36DFF8AC80BCB1394620460EF05EFCF3
:10D3580068B9214640460DF022FC02A80DF015FCE4
:10D368002DB32B682C461D46EDE72546E7E7864298
:10D3780028BF0646AC42F3D1731C10D04FF40044CA
:10D3880040F2E73000214FF47A720023E6FB0401F3
:10D3980009F05EFF02460B46164809F097F8134855
:10D3A8000DF02DFD029C24B904B0BDE8F0812B4698
:10D3B800D8E7206A0DF008FD94F82530206A6FF34D
:10D3C800410384F8253001A9FFF7AEFB00280BDBE9
:10D3D800206A94F82430019904F110020EF0CFF875
:10D3E800206A14300DF00BFD2468DCE75CD20020C5
:10D3F800ECE1002020D900202DE9F84F0DF052FC77
:10D408004FF0FF3380464FF0FF322D480DF0DAFC25
:10D418002C4B1C68002C4ED054F8185905B1183DF7
:10D428004FF0FF37DFF89CA0DFF89C9001E02C4616
:10D438001D4604F1180B414658460EF0E7FB064618
:10D4480008BB594650460DF0AAFB584632463146AD
:10D458000EF0A3FB1D4848450DD24168A14204D0F7
:10D4680001F13C039C420CD101263C2303FB06112D
:10D4780004310EF05AF85DB1AB69002BD7D0183BD8
:10D48800D5E74030E7E7874228BF0746AC42F2D1EC
:10D498007B1C10D04FF4004440F2E73000214FF4D9
:10D4A8007A720023E7FB040109F0D2FE02460B461C
:10D4B800074809F00BF8BDE8F84F01480DF09FBC8C
:10D4C8005CD20020F4E10020B4D3002074D3002003
:10D4D80050D90020F8B54FF0FF33054617460E48DF
:10D4E8004FF0FF320E460DF06DFC0C4B1B680BB174
:10D4F8001C6823B90848BDE8F8400DF080BC3A46DE
:10D50800314628465B6898471CB122682346144672
:10D51800EFE72246FAE700BF5CD20020A8E000202F
:10D528000023F0B585B004460D46CDE90033002947
:10D538004CD0294B1B68A3B1896A95F82C6081B13E
:10D54800062E0ED80DF10A03184632468DF80960EA
:10D558001FF001F995F82D3000908DF804608DF8D2
:10D568000530092120466F690DF035FC80B30D2187
:10D5780020460DF030FC38B94FF0FF324FF0FF3342
:10D5880004F128000DF01EFC20460DF045FB29464D
:10D598004368204698470D21064620460DF01BFC9F
:10D5A80018B904F128000DF02AFC002E02DA2846EA
:10D5B8000FF035F91FB1314638460DF032FB009BAC
:10D5C80023B1324669462046FFF784FF05B0F0BD17
:10D5D8006FF07206EBE700BFA8E00020064B984208
:10D5E80006D3064A904203D2C01A80110130704710
:10D5F8004FF0FF30704700BF74D30020B4D3002031
:10D6080070B50C46002184F8291005460DF0E3FB9F
:10D6180098B3082128460DF0DEFB70B3012321469C
:10D62800284684F8343010F017FB30BB0DF03AFB75
:10D6380020632846FFF7D2FF4FF0FF334FF0FF3249
:10D6480084F838000D480DF0BDFB04F12C010C489E
:10D658000DF0A5FA0A480DF098FA08480DF0CFFB2E
:10D66800084813F06BFD084307D1BDE8704040F649
:10D67800CD420023044808F029BF70BD5CD20020C9
:10D68800E4E1002000D90020F0D800202DE9F04185
:10D698000D460646F8B1F1B108461EF04FFE0828BF
:10D6A8001CD8114FDFF84480441C474508D3224654
:10D6B800294606F108001FF04EF80020BDE8F08169
:10D6C800B74206D02246294607F108001EF0FCFDA5
:10D6D80038B14037E9E76FF01500EFE76FF05A000F
:10D6E800ECE76FF07700E9E774D30020B4D30020AB
:10D6F80070B50546B8B10D4C0D4EB44202D36FF06B
:10D70800010070BD28461EF019FE2946024604F1A4
:10D71800080020F09AFD20B92046BDE87040FFF7C8
:10D728005DBF4034E9E76FF01500EAE774D30020E5
:10D73800B4D300202DE9F043454C4FF0FF324FF0B1
:10D74800FF33444885B00DF03DFB27460FF06AFBD8
:10D75800414D424EDFF80881AC423BD3414B424A2F
:10D76800DB1B9B09AA4288BF00236BB300243F49F7
:10D778003F4813F06CFB3F4B3F494048C3E9004426
:10D7880013F065FB3E4B3F493F48C3E9004413F0A3
:10D798005EFB3E493E4813F05AFB40233D4D85F859
:10D7A8002531012385F8263147F230532846C5F83C
:10D7B80010310DF0A5FE3849C5F81401374813F0AB
:10D7C80046FB374BC3E90044224805B0BDE8F043A7
:10D7D8000DF015BB0022C4E90222206822740368F8
:10D7E800D3F80890B9F1000F17D0D9F80030A3B1D9
:10D7F80007210DF0F9FA04F1140013F0C3F904F14C
:10D80800280013F0BFF9D9F800302046984794F85B
:10D818003C3023F0030384F83C30237A83B9204654
:10D828000EF0AEF970B11F4A1368591C11601E4AF8
:10D83800092101A809F0BAFD204601A9FFF726FF32
:10D84800403489E733685A1C32604246F0E700BF2B
:10D8580074D300205CD20020B4D3002098E00020CC
:10D8680001020300F3D3002035D3002001CA0000D1
:10D87800F0D80020E4E1002015CC0000C0D800203A
:10D88800DCE1002001D4000050D9002021D30000A1
:10D8980020D90020B0E0002051C9000080D9002024
:10D8A800FCE100209CE00020FA01030038B5074C99
:10D8B800074DAC4200D338BD032120460DF08BFA4A
:10D8C80010B920460EF02BF94034F2E774D300204B
:10D8D800B4D300202DE9F0411546064610B30229BD
:10D8E800DCB202D0082918BF062114B90020BDE80F
:10D8F800F08128464FF03A087718012316F8011BE3
:10D9080041220EF0B0F9033CBE420346E4B200F8EF
:10D91800018B01D0002CF0D18542E7D000222846A7
:10D928001A70E4E70048E2E7240203000048704761
:10D9380004F102002DE9F347294C0E461746984694
:10D948000025A246B4F89C30DB0721D5636C9842C9
:10D958001ED1A4235D4305F10C0454444FF0FF335A
:10D968004FF0FF3220460EF0A5FAB069FFF736FEF9
:10D978000AEB050989F89E00C6F81490D9F84830D2
:10D98800CBB920460EF098FA022002B0BDE8F08725
:10D998000135062D04F1A404D4D14FF0FF324FF025
:10D9A800FF330C200EF086FAB069FFF717FE00234C
:10D9B80083F89E30FFDE05F15400504408F092FBD6
:10D9C800204600240EF078FA0A9B009401934846FA
:10D9D80043463A463146D9F84850A8472046D4E746
:10D9E80044E200202DE9F74F04460D461F46364E07
:10D9F8009DF834B09DF83890019206F57678B6F81F
:10DA08009C20D10706D4A4364645F8D1002003B09F
:10DA1800BDE8F08F0CB1A642F5D0B6F89A10019B7C
:10DA28009942F0D1718CB942EDD113051CD40C9BED
:10DA38001A88022AE7D1D6F824A0BAF1000FE2D05A
:10DA4800328C022ADFD150460EF024FAA8B1B9F17F
:10DA5800000F03D096F89620002AD4D1BBF1000F0E
:10DA68001DD16FF01000D2E7002DE0D096F99E008E
:10DA7800FEF7B0FF8542C6D1D9E70C9B191D0846B1
:10DA88000EF008FA90B1B9F1000F03D1BBF1000F05
:10DA9800B9D1E6E796F89620002AF7D0B3E70C9BB1
:10DAA800181D0EF0F7F90028ADD0DAE7102250461D
:10DAB8001EF00AFC0028A6D1B9F1000FD1D096F8C3
:10DAC8009620002A9FD1CCE744E20020F0B5054615
:10DAD8000E460D4F87B002210DF11600FDF7AAFC86
